{
  "contractName": "Land",
  "abi": [
    {
      "inputs": [
        {
          "internalType": "string",
          "name": "_name",
          "type": "string"
        },
        {
          "internalType": "string",
          "name": "_symbol",
          "type": "string"
        },
        {
          "internalType": "uint256",
          "name": "_cost",
          "type": "uint256"
        }
      ],
      "stateMutability": "nonpayable",
      "type": "constructor"
    },
    {
      "anonymous": false,
      "inputs": [
        {
          "indexed": true,
          "internalType": "address",
          "name": "owner",
          "type": "address"
        },
        {
          "indexed": true,
          "internalType": "address",
          "name": "approved",
          "type": "address"
        },
        {
          "indexed": true,
          "internalType": "uint256",
          "name": "tokenId",
          "type": "uint256"
        }
      ],
      "name": "Approval",
      "type": "event"
    },
    {
      "anonymous": false,
      "inputs": [
        {
          "indexed": true,
          "internalType": "address",
          "name": "owner",
          "type": "address"
        },
        {
          "indexed": true,
          "internalType": "address",
          "name": "operator",
          "type": "address"
        },
        {
          "indexed": false,
          "internalType": "bool",
          "name": "approved",
          "type": "bool"
        }
      ],
      "name": "ApprovalForAll",
      "type": "event"
    },
    {
      "anonymous": false,
      "inputs": [
        {
          "indexed": true,
          "internalType": "address",
          "name": "from",
          "type": "address"
        },
        {
          "indexed": true,
          "internalType": "address",
          "name": "to",
          "type": "address"
        },
        {
          "indexed": true,
          "internalType": "uint256",
          "name": "tokenId",
          "type": "uint256"
        }
      ],
      "name": "Transfer",
      "type": "event"
    },
    {
      "inputs": [],
      "name": "USDC",
      "outputs": [
        {
          "internalType": "address",
          "name": "",
          "type": "address"
        }
      ],
      "stateMutability": "view",
      "type": "function",
      "constant": true
    },
    {
      "inputs": [
        {
          "internalType": "address",
          "name": "to",
          "type": "address"
        },
        {
          "internalType": "uint256",
          "name": "tokenId",
          "type": "uint256"
        }
      ],
      "name": "approve",
      "outputs": [],
      "stateMutability": "nonpayable",
      "type": "function"
    },
    {
      "inputs": [
        {
          "internalType": "address",
          "name": "owner",
          "type": "address"
        }
      ],
      "name": "balanceOf",
      "outputs": [
        {
          "internalType": "uint256",
          "name": "",
          "type": "uint256"
        }
      ],
      "stateMutability": "view",
      "type": "function",
      "constant": true
    },
    {
      "inputs": [
        {
          "internalType": "uint256",
          "name": "",
          "type": "uint256"
        }
      ],
      "name": "buildings",
      "outputs": [
        {
          "internalType": "string",
          "name": "name",
          "type": "string"
        },
        {
          "internalType": "address",
          "name": "owner",
          "type": "address"
        },
        {
          "internalType": "int256",
          "name": "posX",
          "type": "int256"
        },
        {
          "internalType": "int256",
          "name": "posY",
          "type": "int256"
        },
        {
          "internalType": "int256",
          "name": "posZ",
          "type": "int256"
        },
        {
          "internalType": "uint256",
          "name": "sizeX",
          "type": "uint256"
        },
        {
          "internalType": "uint256",
          "name": "sizeY",
          "type": "uint256"
        },
        {
          "internalType": "uint256",
          "name": "sizeZ",
          "type": "uint256"
        }
      ],
      "stateMutability": "view",
      "type": "function",
      "constant": true
    },
    {
      "inputs": [],
      "name": "cost",
      "outputs": [
        {
          "internalType": "uint256",
          "name": "",
          "type": "uint256"
        }
      ],
      "stateMutability": "view",
      "type": "function",
      "constant": true
    },
    {
      "inputs": [
        {
          "internalType": "uint256",
          "name": "tokenId",
          "type": "uint256"
        }
      ],
      "name": "getApproved",
      "outputs": [
        {
          "internalType": "address",
          "name": "",
          "type": "address"
        }
      ],
      "stateMutability": "view",
      "type": "function",
      "constant": true
    },
    {
      "inputs": [
        {
          "internalType": "address",
          "name": "owner",
          "type": "address"
        },
        {
          "internalType": "address",
          "name": "operator",
          "type": "address"
        }
      ],
      "name": "isApprovedForAll",
      "outputs": [
        {
          "internalType": "bool",
          "name": "",
          "type": "bool"
        }
      ],
      "stateMutability": "view",
      "type": "function",
      "constant": true
    },
    {
      "inputs": [],
      "name": "maxSupply",
      "outputs": [
        {
          "internalType": "uint256",
          "name": "",
          "type": "uint256"
        }
      ],
      "stateMutability": "view",
      "type": "function",
      "constant": true
    },
    {
      "inputs": [],
      "name": "name",
      "outputs": [
        {
          "internalType": "string",
          "name": "",
          "type": "string"
        }
      ],
      "stateMutability": "view",
      "type": "function",
      "constant": true
    },
    {
      "inputs": [
        {
          "internalType": "uint256",
          "name": "tokenId",
          "type": "uint256"
        }
      ],
      "name": "ownerOf",
      "outputs": [
        {
          "internalType": "address",
          "name": "",
          "type": "address"
        }
      ],
      "stateMutability": "view",
      "type": "function",
      "constant": true
    },
    {
      "inputs": [
        {
          "internalType": "address",
          "name": "operator",
          "type": "address"
        },
        {
          "internalType": "bool",
          "name": "approved",
          "type": "bool"
        }
      ],
      "name": "setApprovalForAll",
      "outputs": [],
      "stateMutability": "nonpayable",
      "type": "function"
    },
    {
      "inputs": [
        {
          "internalType": "bytes4",
          "name": "interfaceId",
          "type": "bytes4"
        }
      ],
      "name": "supportsInterface",
      "outputs": [
        {
          "internalType": "bool",
          "name": "",
          "type": "bool"
        }
      ],
      "stateMutability": "view",
      "type": "function",
      "constant": true
    },
    {
      "inputs": [],
      "name": "symbol",
      "outputs": [
        {
          "internalType": "string",
          "name": "",
          "type": "string"
        }
      ],
      "stateMutability": "view",
      "type": "function",
      "constant": true
    },
    {
      "inputs": [
        {
          "internalType": "uint256",
          "name": "tokenId",
          "type": "uint256"
        }
      ],
      "name": "tokenURI",
      "outputs": [
        {
          "internalType": "string",
          "name": "",
          "type": "string"
        }
      ],
      "stateMutability": "view",
      "type": "function",
      "constant": true
    },
    {
      "inputs": [],
      "name": "totalSupply",
      "outputs": [
        {
          "internalType": "uint256",
          "name": "",
          "type": "uint256"
        }
      ],
      "stateMutability": "view",
      "type": "function",
      "constant": true
    },
    {
      "inputs": [
        {
          "internalType": "uint256",
          "name": "_id",
          "type": "uint256"
        },
        {
          "internalType": "uint256",
          "name": "_amount",
          "type": "uint256"
        }
      ],
      "name": "mint",
      "outputs": [],
      "stateMutability": "nonpayable",
      "type": "function"
    },
    {
      "inputs": [
        {
          "internalType": "address",
          "name": "from",
          "type": "address"
        },
        {
          "internalType": "address",
          "name": "to",
          "type": "address"
        },
        {
          "internalType": "uint256",
          "name": "tokenId",
          "type": "uint256"
        }
      ],
      "name": "transferFrom",
      "outputs": [],
      "stateMutability": "nonpayable",
      "type": "function"
    },
    {
      "inputs": [
        {
          "internalType": "address",
          "name": "from",
          "type": "address"
        },
        {
          "internalType": "address",
          "name": "to",
          "type": "address"
        },
        {
          "internalType": "uint256",
          "name": "tokenId",
          "type": "uint256"
        }
      ],
      "name": "safeTransferFrom",
      "outputs": [],
      "stateMutability": "nonpayable",
      "type": "function"
    },
    {
      "inputs": [
        {
          "internalType": "address",
          "name": "from",
          "type": "address"
        },
        {
          "internalType": "address",
          "name": "to",
          "type": "address"
        },
        {
          "internalType": "uint256",
          "name": "tokenId",
          "type": "uint256"
        },
        {
          "internalType": "bytes",
          "name": "_data",
          "type": "bytes"
        }
      ],
      "name": "safeTransferFrom",
      "outputs": [],
      "stateMutability": "nonpayable",
      "type": "function"
    },
    {
      "inputs": [],
      "name": "getBuildings",
      "outputs": [
        {
          "components": [
            {
              "internalType": "string",
              "name": "name",
              "type": "string"
            },
            {
              "internalType": "address",
              "name": "owner",
              "type": "address"
            },
            {
              "internalType": "int256",
              "name": "posX",
              "type": "int256"
            },
            {
              "internalType": "int256",
              "name": "posY",
              "type": "int256"
            },
            {
              "internalType": "int256",
              "name": "posZ",
              "type": "int256"
            },
            {
              "internalType": "uint256",
              "name": "sizeX",
              "type": "uint256"
            },
            {
              "internalType": "uint256",
              "name": "sizeY",
              "type": "uint256"
            },
            {
              "internalType": "uint256",
              "name": "sizeZ",
              "type": "uint256"
            }
          ],
          "internalType": "struct Land.Building[]",
          "name": "",
          "type": "tuple[]"
        }
      ],
      "stateMutability": "view",
      "type": "function",
      "constant": true
    },
    {
      "inputs": [
        {
          "internalType": "uint256",
          "name": "_id",
          "type": "uint256"
        }
      ],
      "name": "getBuilding",
      "outputs": [
        {
          "components": [
            {
              "internalType": "string",
              "name": "name",
              "type": "string"
            },
            {
              "internalType": "address",
              "name": "owner",
              "type": "address"
            },
            {
              "internalType": "int256",
              "name": "posX",
              "type": "int256"
            },
            {
              "internalType": "int256",
              "name": "posY",
              "type": "int256"
            },
            {
              "internalType": "int256",
              "name": "posZ",
              "type": "int256"
            },
            {
              "internalType": "uint256",
              "name": "sizeX",
              "type": "uint256"
            },
            {
              "internalType": "uint256",
              "name": "sizeY",
              "type": "uint256"
            },
            {
              "internalType": "uint256",
              "name": "sizeZ",
              "type": "uint256"
            }
          ],
          "internalType": "struct Land.Building",
          "name": "",
          "type": "tuple"
        }
      ],
      "stateMutability": "view",
      "type": "function",
      "constant": true
    }
  ],
  "bytecode": "0x6080604052670de0b6b3a76400006006556005600755600060085573a0b86991c6218b36c1d19d4a2e9eb0ce3606eb48600960006101000a81548173ffffffffffffffffffffffffffffffffffffffff021916908373ffffffffffffffffffffffffffffffffffffffff1602179055503480156200007c57600080fd5b5060405162004010380380620040108339818101604052810190620000a2919062000926565b82828160009080519060200190620000bc929190620007ed565b508060019080519060200190620000d5929190620007ed565b50505080600681905550600a6040518061010001604052806040518060400160405280600981526020017f436974792048616c6c00000000000000000000000000000000000000000000008152508152602001600073ffffffffffffffffffffffffffffffffffffffff168152602001600081526020016000815260200160008152602001600a8152602001600a8152602001600a81525090806001815401808255809150506001900390600052602060002090600802016000909190919091506000820151816000019080519060200190620001b4929190620007ed565b5060208201518160010160006101000a81548173ffffffffffffffffffffffffffffffffffffffff021916908373ffffffffffffffffffffffffffffffffffffffff16021790555060408201518160020155606082015181600301556080820151816004015560a0820151816005015560c0820151816006015560e082015181600701555050600a6040518061010001604052806040518060400160405280600781526020017f5374616469756d000000000000000000000000000000000000000000000000008152508152602001600073ffffffffffffffffffffffffffffffffffffffff16815260200160008152602001600a815260200160008152602001600a8152602001600581526020016003815250908060018154018082558091505060019003906000526020600020906008020160009091909190915060008201518160000190805190602001906200030f929190620007ed565b5060208201518160010160006101000a81548173ffffffffffffffffffffffffffffffffffffffff021916908373ffffffffffffffffffffffffffffffffffffffff16021790555060408201518160020155606082015181600301556080820151816004015560a0820151816005015560c0820151816006015560e082015181600701555050600a6040518061010001604052806040518060400160405280600a81526020017f556e6976657273697479000000000000000000000000000000000000000000008152508152602001600073ffffffffffffffffffffffffffffffffffffffff168152602001600081526020017ffffffffffffffffffffffffffffffffffffffffffffffffffffffffffffffff6815260200160008152602001600a81526020016005815260200160038152509080600181540180825580915050600190039060005260206000209060080201600090919091909150600082015181600001908051906020019062000489929190620007ed565b5060208201518160010160006101000a81548173ffffffffffffffffffffffffffffffffffffffff021916908373ffffffffffffffffffffffffffffffffffffffff16021790555060408201518160020155606082015181600301556080820151816004015560a0820151816005015560c0820151816006015560e082015181600701555050600a6040518061010001604052806040518060400160405280601081526020017f53686f7070696e6720506c617a612031000000000000000000000000000000008152508152602001600073ffffffffffffffffffffffffffffffffffffffff168152602001600a815260200160008152602001600081526020016005815260200160198152602001600581525090806001815401808255809150506001900390600052602060002090600802016000909190919091506000820151816000019080519060200190620005e4929190620007ed565b5060208201518160010160006101000a81548173ffffffffffffffffffffffffffffffffffffffff021916908373ffffffffffffffffffffffffffffffffffffffff16021790555060408201518160020155606082015181600301556080820151816004015560a0820151816005015560c0820151816006015560e082015181600701555050600a6040518061010001604052806040518060400160405280601081526020017f53686f7070696e6720506c617a612032000000000000000000000000000000008152508152602001600073ffffffffffffffffffffffffffffffffffffffff1681526020017ffffffffffffffffffffffffffffffffffffffffffffffffffffffffffffffff68152602001600081526020016000815260200160058152602001601981526020016005815250908060018154018082558091505060019003906000526020600020906008020160009091909190915060008201518160000190805190602001906200075e929190620007ed565b5060208201518160010160006101000a81548173ffffffffffffffffffffffffffffffffffffffff021916908373ffffffffffffffffffffffffffffffffffffffff16021790555060408201518160020155606082015181600301556080820151816004015560a0820151816005015560c0820151816006015560e08201518160070155505050505062000b42565b828054620007fb9062000a4d565b90600052602060002090601f0160209004810192826200081f57600085556200086b565b82601f106200083a57805160ff19168380011785556200086b565b828001600101855582156200086b579182015b828111156200086a5782518255916020019190600101906200084d565b5b5090506200087a91906200087e565b5090565b5b80821115620008995760008160009055506001016200087f565b5090565b6000620008b4620008ae84620009d7565b620009ae565b905082815260208101848484011115620008cd57600080fd5b620008da84828562000a17565b509392505050565b600082601f830112620008f457600080fd5b8151620009068482602086016200089d565b91505092915050565b600081519050620009208162000b28565b92915050565b6000806000606084860312156200093c57600080fd5b600084015167ffffffffffffffff8111156200095757600080fd5b6200096586828701620008e2565b935050602084015167ffffffffffffffff8111156200098357600080fd5b6200099186828701620008e2565b9250506040620009a4868287016200090f565b9150509250925092565b6000620009ba620009cd565b9050620009c8828262000a83565b919050565b6000604051905090565b600067ffffffffffffffff821115620009f557620009f462000ae8565b5b62000a008262000b17565b9050602081019050919050565b6000819050919050565b60005b8381101562000a3757808201518184015260208101905062000a1a565b8381111562000a47576000848401525b50505050565b6000600282049050600182168062000a6657607f821691505b6020821081141562000a7d5762000a7c62000ab9565b5b50919050565b62000a8e8262000b17565b810181811067ffffffffffffffff8211171562000ab05762000aaf62000ae8565b5b80604052505050565b7f4e487b7100000000000000000000000000000000000000000000000000000000600052602260045260246000fd5b7f4e487b7100000000000000000000000000000000000000000000000000000000600052604160045260246000fd5b6000601f19601f8301169050919050565b62000b338162000a0d565b811462000b3f57600080fd5b50565b6134be8062000b526000396000f3fe608060405234801561001057600080fd5b50600436106101375760003560e01c80636352211e116100b8578063a22cb4651161007c578063a22cb46514610369578063b88d4fde14610385578063c87b56dd146103a1578063d5abeb01146103d1578063d9cf6a26146103ef578063e985e9c51461040d57610137565b80636352211e1461029d57806370a08231146102cd57806389a30271146102fd57806395d89b411461031b5780639dfd8b021461033957610137565b806318160ddd116100ff57806318160ddd146101f45780631b2ef1ca1461021257806323b872dd1461022e57806342842e0e1461024a5780634c96a0621461026657610137565b806301ffc9a71461013c57806306fdde031461016c578063081812fc1461018a578063095ea7b3146101ba57806313faede6146101d6575b600080fd5b610156600480360381019061015191906122d2565b61043d565b6040516101639190612985565b60405180910390f35b61017461051f565b60405161018191906129a0565b60405180910390f35b6101a4600480360381019061019f9190612324565b6105b1565b6040516101b191906128c5565b60405180910390f35b6101d460048036038101906101cf919061226d565b610636565b005b6101de61074e565b6040516101eb9190612c29565b60405180910390f35b6101fc610754565b6040516102099190612c29565b60405180910390f35b61022c6004803603810190610227919061234d565b61075a565b005b61024860048036038101906102439190612167565b6109a3565b005b610264600480360381019061025f9190612167565b610a99565b005b610280600480360381019061027b9190612324565b610ab9565b6040516102949897969594939291906129c2565b60405180910390f35b6102b760048036038101906102b29190612324565b610bb9565b6040516102c491906128c5565b60405180910390f35b6102e760048036038101906102e29190612102565b610c6b565b6040516102f49190612c29565b60405180910390f35b610305610d23565b60405161031291906128c5565b60405180910390f35b610323610d49565b60405161033091906129a0565b60405180910390f35b610353600480360381019061034e9190612324565b610ddb565b6040516103609190612c07565b60405180910390f35b610383600480360381019061037e9190612231565b610f6e565b005b61039f600480360381019061039a91906121b6565b610f84565b005b6103bb60048036038101906103b69190612324565b61107c565b6040516103c891906129a0565b60405180910390f35b6103d9611123565b6040516103e69190612c29565b60405180910390f35b6103f7611129565b6040516104049190612963565b60405180910390f35b6104276004803603810190610422919061212b565b6112ad565b6040516104349190612985565b60405180910390f35b60007f80ac58cd000000000000000000000000000000000000000000000000000000007bffffffffffffffffffffffffffffffffffffffffffffffffffffffff1916827bffffffffffffffffffffffffffffffffffffffffffffffffffffffff1916148061050857507f5b5e139f000000000000000000000000000000000000000000000000000000007bffffffffffffffffffffffffffffffffffffffffffffffffffffffff1916827bffffffffffffffffffffffffffffffffffffffffffffffffffffffff1916145b80610518575061051782611341565b5b9050919050565b60606000805461052e90612ea2565b80601f016020809104026020016040519081016040528092919081815260200182805461055a90612ea2565b80156105a75780601f1061057c576101008083540402835291602001916105a7565b820191906000526020600020905b81548152906001019060200180831161058a57829003601f168201915b5050505050905090565b60006105bc826113ab565b6105fb576040517f08c379a00000000000000000000000000000000000000000000000000000000081526004016105f290612b87565b60405180910390fd5b6004600083815260200190815260200160002060009054906101000a900473ffffffffffffffffffffffffffffffffffffffff169050919050565b600061064182610bb9565b90508073ffffffffffffffffffffffffffffffffffffffff168373ffffffffffffffffffffffffffffffffffffffff1614156106b2576040517f08c379a00000000000000000000000000000000000000000000000000000000081526004016106a990612bc7565b60405180910390fd5b8073ffffffffffffffffffffffffffffffffffffffff166106d1611417565b73ffffffffffffffffffffffffffffffffffffffff16148061070057506106ff816106fa611417565b6112ad565b5b61073f576040517f08c379a000000000000000000000000000000000000000000000000000000000815260040161073690612b07565b60405180910390fd5b610749838361141f565b505050565b60065481565b60085481565b6000600854905060075481111561077057600080fd5b600073ffffffffffffffffffffffffffffffffffffffff16600a6001856107979190612dae565b815481106107ce577f4e487b7100000000000000000000000000000000000000000000000000000000600052603260045260246000fd5b906000526020600020906008020160010160009054906101000a900473ffffffffffffffffffffffffffffffffffffffff1673ffffffffffffffffffffffffffffffffffffffff161461082057600080fd5b60065482101561082f57600080fd5b600960009054906101000a900473ffffffffffffffffffffffffffffffffffffffff1673ffffffffffffffffffffffffffffffffffffffff166323b872dd3330856040518463ffffffff1660e01b815260040161088e939291906128e0565b602060405180830381600087803b1580156108a857600080fd5b505af11580156108bc573d6000803e3d6000fd5b505050506040513d601f19601f820116820180604052508101906108e091906122a9565b6108e957600080fd5b33600a6001856108f99190612dae565b81548110610930577f4e487b7100000000000000000000000000000000000000000000000000000000600052603260045260246000fd5b906000526020600020906008020160010160006101000a81548173ffffffffffffffffffffffffffffffffffffffff021916908373ffffffffffffffffffffffffffffffffffffffff160217905550600160085461098e9190612d27565b60088190555061099e33846114d8565b505050565b6109b46109ae611417565b826114f6565b6109f3576040517f08c379a00000000000000000000000000000000000000000000000000000000081526004016109ea90612be7565b60405180910390fd5b81600a600183610a039190612dae565b81548110610a3a577f4e487b7100000000000000000000000000000000000000000000000000000000600052603260045260246000fd5b906000526020600020906008020160010160006101000a81548173ffffffffffffffffffffffffffffffffffffffff021916908373ffffffffffffffffffffffffffffffffffffffff160217905550610a948383836115d4565b505050565b610ab483838360405180602001604052806000815250610f84565b505050565b600a8181548110610ac957600080fd5b9060005260206000209060080201600091509050806000018054610aec90612ea2565b80601f0160208091040260200160405190810160405280929190818152602001828054610b1890612ea2565b8015610b655780601f10610b3a57610100808354040283529160200191610b65565b820191906000526020600020905b815481529060010190602001808311610b4857829003601f168201915b5050505050908060010160009054906101000a900473ffffffffffffffffffffffffffffffffffffffff16908060020154908060030154908060040154908060050154908060060154908060070154905088565b6000806002600084815260200190815260200160002060009054906101000a900473ffffffffffffffffffffffffffffffffffffffff169050600073ffffffffffffffffffffffffffffffffffffffff168173ffffffffffffffffffffffffffffffffffffffff161415610c62576040517f08c379a0000000000000000000000000000000000000000000000000000000008152600401610c5990612b47565b60405180910390fd5b80915050919050565b60008073ffffffffffffffffffffffffffffffffffffffff168273ffffffffffffffffffffffffffffffffffffffff161415610cdc576040517f08c379a0000000000000000000000000000000000000000000000000000000008152600401610cd390612b27565b60405180910390fd5b600360008373ffffffffffffffffffffffffffffffffffffffff1673ffffffffffffffffffffffffffffffffffffffff168152602001908152602001600020549050919050565b600960009054906101000a900473ffffffffffffffffffffffffffffffffffffffff1681565b606060018054610d5890612ea2565b80601f0160208091040260200160405190810160405280929190818152602001828054610d8490612ea2565b8015610dd15780601f10610da657610100808354040283529160200191610dd1565b820191906000526020600020905b815481529060010190602001808311610db457829003601f168201915b5050505050905090565b610de3611fc1565b600a600183610df29190612dae565b81548110610e29577f4e487b7100000000000000000000000000000000000000000000000000000000600052603260045260246000fd5b906000526020600020906008020160405180610100016040529081600082018054610e5390612ea2565b80601f0160208091040260200160405190810160405280929190818152602001828054610e7f90612ea2565b8015610ecc5780601f10610ea157610100808354040283529160200191610ecc565b820191906000526020600020905b815481529060010190602001808311610eaf57829003601f168201915b505050505081526020016001820160009054906101000a900473ffffffffffffffffffffffffffffffffffffffff1673ffffffffffffffffffffffffffffffffffffffff1673ffffffffffffffffffffffffffffffffffffffff16815260200160028201548152602001600382015481526020016004820154815260200160058201548152602001600682015481526020016007820154815250509050919050565b610f80610f79611417565b838361183b565b5050565b610f95610f8f611417565b836114f6565b610fd4576040517f08c379a0000000000000000000000000000000000000000000000000000000008152600401610fcb90612be7565b60405180910390fd5b82600a600184610fe49190612dae565b8154811061101b577f4e487b7100000000000000000000000000000000000000000000000000000000600052603260045260246000fd5b906000526020600020906008020160010160006101000a81548173ffffffffffffffffffffffffffffffffffffffff021916908373ffffffffffffffffffffffffffffffffffffffff160217905550611076848484846119a8565b50505050565b6060611087826113ab565b6110c6576040517f08c379a00000000000000000000000000000000000000000000000000000000081526004016110bd90612ba7565b60405180910390fd5b60006110d0611a04565b905060008151116110f0576040518060200160405280600081525061111b565b806110fa84611a1b565b60405160200161110b9291906128a1565b6040516020818303038152906040525b915050919050565b60075481565b6060600a805480602002602001604051908101604052809291908181526020016000905b828210156112a457838290600052602060002090600802016040518061010001604052908160008201805461118190612ea2565b80601f01602080910402602001604051908101604052809291908181526020018280546111ad90612ea2565b80156111fa5780601f106111cf576101008083540402835291602001916111fa565b820191906000526020600020905b8154815290600101906020018083116111dd57829003601f168201915b505050505081526020016001820160009054906101000a900473ffffffffffffffffffffffffffffffffffffffff1673ffffffffffffffffffffffffffffffffffffffff1673ffffffffffffffffffffffffffffffffffffffff16815260200160028201548152602001600382015481526020016004820154815260200160058201548152602001600682015481526020016007820154815250508152602001906001019061114d565b50505050905090565b6000600560008473ffffffffffffffffffffffffffffffffffffffff1673ffffffffffffffffffffffffffffffffffffffff16815260200190815260200160002060008373ffffffffffffffffffffffffffffffffffffffff1673ffffffffffffffffffffffffffffffffffffffff16815260200190815260200160002060009054906101000a900460ff16905092915050565b60007f01ffc9a7000000000000000000000000000000000000000000000000000000007bffffffffffffffffffffffffffffffffffffffffffffffffffffffff1916827bffffffffffffffffffffffffffffffffffffffffffffffffffffffff1916149050919050565b60008073ffffffffffffffffffffffffffffffffffffffff166002600084815260200190815260200160002060009054906101000a900473ffffffffffffffffffffffffffffffffffffffff1673ffffffffffffffffffffffffffffffffffffffff1614159050919050565b600033905090565b816004600083815260200190815260200160002060006101000a81548173ffffffffffffffffffffffffffffffffffffffff021916908373ffffffffffffffffffffffffffffffffffffffff160217905550808273ffffffffffffffffffffffffffffffffffffffff1661149283610bb9565b73ffffffffffffffffffffffffffffffffffffffff167f8c5be1e5ebec7d5bd14f71427d1e84f3dd0314c0f7b2291e5b200ac8c7c3b92560405160405180910390a45050565b6114f2828260405180602001604052806000815250611bc8565b5050565b6000611501826113ab565b611540576040517f08c379a000000000000000000000000000000000000000000000000000000000815260040161153790612ae7565b60405180910390fd5b600061154b83610bb9565b90508073ffffffffffffffffffffffffffffffffffffffff168473ffffffffffffffffffffffffffffffffffffffff16148061158d575061158c81856112ad565b5b806115cb57508373ffffffffffffffffffffffffffffffffffffffff166115b3846105b1565b73ffffffffffffffffffffffffffffffffffffffff16145b91505092915050565b8273ffffffffffffffffffffffffffffffffffffffff166115f482610bb9565b73ffffffffffffffffffffffffffffffffffffffff161461164a576040517f08c379a000000000000000000000000000000000000000000000000000000000815260040161164190612a67565b60405180910390fd5b600073ffffffffffffffffffffffffffffffffffffffff168273ffffffffffffffffffffffffffffffffffffffff1614156116ba576040517f08c379a00000000000000000000000000000000000000000000000000000000081526004016116b190612aa7565b60405180910390fd5b6116c5838383611c23565b6116d060008261141f565b6001600360008573ffffffffffffffffffffffffffffffffffffffff1673ffffffffffffffffffffffffffffffffffffffff16815260200190815260200160002060008282546117209190612dae565b925050819055506001600360008473ffffffffffffffffffffffffffffffffffffffff1673ffffffffffffffffffffffffffffffffffffffff16815260200190815260200160002060008282546117779190612d27565b92505081905550816002600083815260200190815260200160002060006101000a81548173ffffffffffffffffffffffffffffffffffffffff021916908373ffffffffffffffffffffffffffffffffffffffff160217905550808273ffffffffffffffffffffffffffffffffffffffff168473ffffffffffffffffffffffffffffffffffffffff167fddf252ad1be2c89b69c2b068fc378daa952ba7f163c4a11628f55a4df523b3ef60405160405180910390a4611836838383611c28565b505050565b8173ffffffffffffffffffffffffffffffffffffffff168373ffffffffffffffffffffffffffffffffffffffff1614156118aa576040517f08c379a00000000000000000000000000000000000000000000000000000000081526004016118a190612ac7565b60405180910390fd5b80600560008573ffffffffffffffffffffffffffffffffffffffff1673ffffffffffffffffffffffffffffffffffffffff16815260200190815260200160002060008473ffffffffffffffffffffffffffffffffffffffff1673ffffffffffffffffffffffffffffffffffffffff16815260200190815260200160002060006101000a81548160ff0219169083151502179055508173ffffffffffffffffffffffffffffffffffffffff168373ffffffffffffffffffffffffffffffffffffffff167f17307eab39ab6107e8899845ad3d59bd9653f200f220920489ca2b5937696c318360405161199b9190612985565b60405180910390a3505050565b6119b38484846115d4565b6119bf84848484611c2d565b6119fe576040517f08c379a00000000000000000000000000000000000000000000000000000000081526004016119f590612a47565b60405180910390fd5b50505050565b606060405180602001604052806000815250905090565b60606000821415611a63576040518060400160405280600181526020017f30000000000000000000000000000000000000000000000000000000000000008152509050611bc3565b600082905060005b60008214611a95578080611a7e90612f05565b915050600a82611a8e9190612d7d565b9150611a6b565b60008167ffffffffffffffff811115611ad7577f4e487b7100000000000000000000000000000000000000000000000000000000600052604160045260246000fd5b6040519080825280601f01601f191660200182016040528015611b095781602001600182028036833780820191505090505b5090505b60008514611bbc57600182611b229190612dae565b9150600a85611b319190612f4e565b6030611b3d9190612d27565b60f81b818381518110611b79577f4e487b7100000000000000000000000000000000000000000000000000000000600052603260045260246000fd5b60200101907effffffffffffffffffffffffffffffffffffffffffffffffffffffffffffff1916908160001a905350600a85611bb59190612d7d565b9450611b0d565b8093505050505b919050565b611bd28383611dc4565b611bdf6000848484611c2d565b611c1e576040517f08c379a0000000000000000000000000000000000000000000000000000000008152600401611c1590612a47565b60405180910390fd5b505050565b505050565b505050565b6000611c4e8473ffffffffffffffffffffffffffffffffffffffff16611f9e565b15611db7578373ffffffffffffffffffffffffffffffffffffffff1663150b7a02611c77611417565b8786866040518563ffffffff1660e01b8152600401611c999493929190612917565b602060405180830381600087803b158015611cb357600080fd5b505af1925050508015611ce457506040513d601f19601f82011682018060405250810190611ce191906122fb565b60015b611d67573d8060008114611d14576040519150601f19603f3d011682016040523d82523d6000602084013e611d19565b606091505b50600081511415611d5f576040517f08c379a0000000000000000000000000000000000000000000000000000000008152600401611d5690612a47565b60405180910390fd5b805181602001fd5b63150b7a0260e01b7bffffffffffffffffffffffffffffffffffffffffffffffffffffffff1916817bffffffffffffffffffffffffffffffffffffffffffffffffffffffff191614915050611dbc565b600190505b949350505050565b600073ffffffffffffffffffffffffffffffffffffffff168273ffffffffffffffffffffffffffffffffffffffff161415611e34576040517f08c379a0000000000000000000000000000000000000000000000000000000008152600401611e2b90612b67565b60405180910390fd5b611e3d816113ab565b15611e7d576040517f08c379a0000000000000000000000000000000000000000000000000000000008152600401611e7490612a87565b60405180910390fd5b611e8960008383611c23565b6001600360008473ffffffffffffffffffffffffffffffffffffffff1673ffffffffffffffffffffffffffffffffffffffff1681526020019081526020016000206000828254611ed99190612d27565b92505081905550816002600083815260200190815260200160002060006101000a81548173ffffffffffffffffffffffffffffffffffffffff021916908373ffffffffffffffffffffffffffffffffffffffff160217905550808273ffffffffffffffffffffffffffffffffffffffff16600073ffffffffffffffffffffffffffffffffffffffff167fddf252ad1be2c89b69c2b068fc378daa952ba7f163c4a11628f55a4df523b3ef60405160405180910390a4611f9a60008383611c28565b5050565b6000808273ffffffffffffffffffffffffffffffffffffffff163b119050919050565b60405180610100016040528060608152602001600073ffffffffffffffffffffffffffffffffffffffff1681526020016000815260200160008152602001600081526020016000815260200160008152602001600081525090565b600061202f61202a84612c69565b612c44565b90508281526020810184848401111561204757600080fd5b612052848285612e60565b509392505050565b6000813590506120698161342c565b92915050565b60008135905061207e81613443565b92915050565b60008151905061209381613443565b92915050565b6000813590506120a88161345a565b92915050565b6000815190506120bd8161345a565b92915050565b600082601f8301126120d457600080fd5b81356120e484826020860161201c565b91505092915050565b6000813590506120fc81613471565b92915050565b60006020828403121561211457600080fd5b60006121228482850161205a565b91505092915050565b6000806040838503121561213e57600080fd5b600061214c8582860161205a565b925050602061215d8582860161205a565b9150509250929050565b60008060006060848603121561217c57600080fd5b600061218a8682870161205a565b935050602061219b8682870161205a565b92505060406121ac868287016120ed565b9150509250925092565b600080600080608085870312156121cc57600080fd5b60006121da8782880161205a565b94505060206121eb8782880161205a565b93505060406121fc878288016120ed565b925050606085013567ffffffffffffffff81111561221957600080fd5b612225878288016120c3565b91505092959194509250565b6000806040838503121561224457600080fd5b60006122528582860161205a565b92505060206122638582860161206f565b9150509250929050565b6000806040838503121561228057600080fd5b600061228e8582860161205a565b925050602061229f858286016120ed565b9150509250929050565b6000602082840312156122bb57600080fd5b60006122c984828501612084565b91505092915050565b6000602082840312156122e457600080fd5b60006122f284828501612099565b91505092915050565b60006020828403121561230d57600080fd5b600061231b848285016120ae565b91505092915050565b60006020828403121561233657600080fd5b6000612344848285016120ed565b91505092915050565b6000806040838503121561236057600080fd5b600061236e858286016120ed565b925050602061237f858286016120ed565b9150509250929050565b60006123958383612723565b905092915050565b6123a681612de2565b82525050565b6123b581612de2565b82525050565b60006123c682612caa565b6123d08185612cd8565b9350836020820285016123e285612c9a565b8060005b8581101561241e57848403895281516123ff8582612389565b945061240a83612ccb565b925060208a019950506001810190506123e6565b50829750879550505050505092915050565b61243981612df4565b82525050565b600061244a82612cb5565b6124548185612ce9565b9350612464818560208601612e6f565b61246d8161303b565b840191505092915050565b61248181612e2c565b82525050565b61249081612e2c565b82525050565b60006124a182612cc0565b6124ab8185612cfa565b93506124bb818560208601612e6f565b6124c48161303b565b840191505092915050565b60006124da82612cc0565b6124e48185612d0b565b93506124f4818560208601612e6f565b6124fd8161303b565b840191505092915050565b600061251382612cc0565b61251d8185612d1c565b935061252d818560208601612e6f565b80840191505092915050565b6000612546603283612d0b565b91506125518261304c565b604082019050919050565b6000612569602583612d0b565b91506125748261309b565b604082019050919050565b600061258c601c83612d0b565b9150612597826130ea565b602082019050919050565b60006125af602483612d0b565b91506125ba82613113565b604082019050919050565b60006125d2601983612d0b565b91506125dd82613162565b602082019050919050565b60006125f5602c83612d0b565b91506126008261318b565b604082019050919050565b6000612618603883612d0b565b9150612623826131da565b604082019050919050565b600061263b602a83612d0b565b915061264682613229565b604082019050919050565b600061265e602983612d0b565b915061266982613278565b604082019050919050565b6000612681602083612d0b565b915061268c826132c7565b602082019050919050565b60006126a4602c83612d0b565b91506126af826132f0565b604082019050919050565b60006126c7602f83612d0b565b91506126d28261333f565b604082019050919050565b60006126ea602183612d0b565b91506126f58261338e565b604082019050919050565b600061270d603183612d0b565b9150612718826133dd565b604082019050919050565b60006101008301600083015184820360008601526127418282612496565b9150506020830151612756602086018261239d565b5060408301516127696040860182612478565b50606083015161277c6060860182612478565b50608083015161278f6080860182612478565b5060a08301516127a260a0860182612883565b5060c08301516127b560c0860182612883565b5060e08301516127c860e0860182612883565b508091505092915050565b60006101008301600083015184820360008601526127f18282612496565b9150506020830151612806602086018261239d565b5060408301516128196040860182612478565b50606083015161282c6060860182612478565b50608083015161283f6080860182612478565b5060a083015161285260a0860182612883565b5060c083015161286560c0860182612883565b5060e083015161287860e0860182612883565b508091505092915050565b61288c81612e56565b82525050565b61289b81612e56565b82525050565b60006128ad8285612508565b91506128b98284612508565b91508190509392505050565b60006020820190506128da60008301846123ac565b92915050565b60006060820190506128f560008301866123ac565b61290260208301856123ac565b61290f6040830184612892565b949350505050565b600060808201905061292c60008301876123ac565b61293960208301866123ac565b6129466040830185612892565b8181036060830152612958818461243f565b905095945050505050565b6000602082019050818103600083015261297d81846123bb565b905092915050565b600060208201905061299a6000830184612430565b92915050565b600060208201905081810360008301526129ba81846124cf565b905092915050565b60006101008201905081810360008301526129dd818b6124cf565b90506129ec602083018a6123ac565b6129f96040830189612487565b612a066060830188612487565b612a136080830187612487565b612a2060a0830186612892565b612a2d60c0830185612892565b612a3a60e0830184612892565b9998505050505050505050565b60006020820190508181036000830152612a6081612539565b9050919050565b60006020820190508181036000830152612a808161255c565b9050919050565b60006020820190508181036000830152612aa08161257f565b9050919050565b60006020820190508181036000830152612ac0816125a2565b9050919050565b60006020820190508181036000830152612ae0816125c5565b9050919050565b60006020820190508181036000830152612b00816125e8565b9050919050565b60006020820190508181036000830152612b208161260b565b9050919050565b60006020820190508181036000830152612b408161262e565b9050919050565b60006020820190508181036000830152612b6081612651565b9050919050565b60006020820190508181036000830152612b8081612674565b9050919050565b60006020820190508181036000830152612ba081612697565b9050919050565b60006020820190508181036000830152612bc0816126ba565b9050919050565b60006020820190508181036000830152612be0816126dd565b9050919050565b60006020820190508181036000830152612c0081612700565b9050919050565b60006020820190508181036000830152612c2181846127d3565b905092915050565b6000602082019050612c3e6000830184612892565b92915050565b6000612c4e612c5f565b9050612c5a8282612ed4565b919050565b6000604051905090565b600067ffffffffffffffff821115612c8457612c8361300c565b5b612c8d8261303b565b9050602081019050919050565b6000819050602082019050919050565b600081519050919050565b600081519050919050565b600081519050919050565b6000602082019050919050565b600082825260208201905092915050565b600082825260208201905092915050565b600082825260208201905092915050565b600082825260208201905092915050565b600081905092915050565b6000612d3282612e56565b9150612d3d83612e56565b9250827fffffffffffffffffffffffffffffffffffffffffffffffffffffffffffffffff03821115612d7257612d71612f7f565b5b828201905092915050565b6000612d8882612e56565b9150612d9383612e56565b925082612da357612da2612fae565b5b828204905092915050565b6000612db982612e56565b9150612dc483612e56565b925082821015612dd757612dd6612f7f565b5b828203905092915050565b6000612ded82612e36565b9050919050565b60008115159050919050565b60007fffffffff0000000000000000000000000000000000000000000000000000000082169050919050565b6000819050919050565b600073ffffffffffffffffffffffffffffffffffffffff82169050919050565b6000819050919050565b82818337600083830152505050565b60005b83811015612e8d578082015181840152602081019050612e72565b83811115612e9c576000848401525b50505050565b60006002820490506001821680612eba57607f821691505b60208210811415612ece57612ecd612fdd565b5b50919050565b612edd8261303b565b810181811067ffffffffffffffff82111715612efc57612efb61300c565b5b80604052505050565b6000612f1082612e56565b91507fffffffffffffffffffffffffffffffffffffffffffffffffffffffffffffffff821415612f4357612f42612f7f565b5b600182019050919050565b6000612f5982612e56565b9150612f6483612e56565b925082612f7457612f73612fae565b5b828206905092915050565b7f4e487b7100000000000000000000000000000000000000000000000000000000600052601160045260246000fd5b7f4e487b7100000000000000000000000000000000000000000000000000000000600052601260045260246000fd5b7f4e487b7100000000000000000000000000000000000000000000000000000000600052602260045260246000fd5b7f4e487b7100000000000000000000000000000000000000000000000000000000600052604160045260246000fd5b6000601f19601f8301169050919050565b7f4552433732313a207472616e7366657220746f206e6f6e20455243373231526560008201527f63656976657220696d706c656d656e7465720000000000000000000000000000602082015250565b7f4552433732313a207472616e736665722066726f6d20696e636f72726563742060008201527f6f776e6572000000000000000000000000000000000000000000000000000000602082015250565b7f4552433732313a20746f6b656e20616c7265616479206d696e74656400000000600082015250565b7f4552433732313a207472616e7366657220746f20746865207a65726f2061646460008201527f7265737300000000000000000000000000000000000000000000000000000000602082015250565b7f4552433732313a20617070726f766520746f2063616c6c657200000000000000600082015250565b7f4552433732313a206f70657261746f7220717565727920666f72206e6f6e657860008201527f697374656e7420746f6b656e0000000000000000000000000000000000000000602082015250565b7f4552433732313a20617070726f76652063616c6c6572206973206e6f74206f7760008201527f6e6572206e6f7220617070726f76656420666f7220616c6c0000000000000000602082015250565b7f4552433732313a2062616c616e636520717565727920666f7220746865207a6560008201527f726f206164647265737300000000000000000000000000000000000000000000602082015250565b7f4552433732313a206f776e657220717565727920666f72206e6f6e657869737460008201527f656e7420746f6b656e0000000000000000000000000000000000000000000000602082015250565b7f4552433732313a206d696e7420746f20746865207a65726f2061646472657373600082015250565b7f4552433732313a20617070726f76656420717565727920666f72206e6f6e657860008201527f697374656e7420746f6b656e0000000000000000000000000000000000000000602082015250565b7f4552433732314d657461646174613a2055524920717565727920666f72206e6f60008201527f6e6578697374656e7420746f6b656e0000000000000000000000000000000000602082015250565b7f4552433732313a20617070726f76616c20746f2063757272656e74206f776e6560008201527f7200000000000000000000000000000000000000000000000000000000000000602082015250565b7f4552433732313a207472616e736665722063616c6c6572206973206e6f74206f60008201527f776e6572206e6f7220617070726f766564000000000000000000000000000000602082015250565b61343581612de2565b811461344057600080fd5b50565b61344c81612df4565b811461345757600080fd5b50565b61346381612e00565b811461346e57600080fd5b50565b61347a81612e56565b811461348557600080fd5b5056fea2646970667358221220e74518453a934efa82a82558d25fded8b7a1b20411fce3ae4652696a4a7a9d7d64736f6c63430008020033",
  "immutableReferences": {},
  "source": "// SPDX-License-Identifier: MIT\r\npragma solidity ^0.8.0;\r\n\r\nimport \"@openzeppelin/contracts/token/ERC721/ERC721.sol\";\r\nimport \"@openzeppelin/contracts/token/ERC20/IERC20.sol\";\r\n\r\ncontract Land is ERC721 {\r\n    uint256 public cost = 1 ether;\r\n    uint256 public maxSupply = 5;\r\n    uint256 public totalSupply = 0;\r\n    address public USDC = 0xA0b86991c6218b36c1d19D4a2e9Eb0cE3606eB48;\r\n\r\n    struct Building {\r\n        string name;\r\n        address owner;\r\n        int256 posX;\r\n        int256 posY;\r\n        int256 posZ;\r\n        uint256 sizeX;\r\n        uint256 sizeY;\r\n        uint256 sizeZ;\r\n    }\r\n\r\n    Building[] public buildings;\r\n\r\n    constructor(\r\n        string memory _name, \r\n        string memory _symbol,\r\n        uint256 _cost\r\n    ) ERC721(_name, _symbol) {\r\n        cost = _cost;\r\n\r\n        buildings.push(\r\n            Building(\"City Hall\", address(0x0), 0, 0, 0, 10, 10, 10)\r\n        );\r\n        buildings.push(Building(\"Stadium\", address(0x0), 0, 10, 0, 10, 5, 3));\r\n        buildings.push(\r\n            Building(\"University\", address(0x0), 0, -10, 0, 10, 5, 3)\r\n        );\r\n        buildings.push(\r\n            Building(\"Shopping Plaza 1\", address(0x0), 10, 0, 0, 5, 25, 5)\r\n        );\r\n        buildings.push(\r\n            Building(\"Shopping Plaza 2\", address(0x0), -10, 0, 0, 5, 25, 5)\r\n        );\r\n    }\r\n\r\n    function mint(uint256 _id, uint256 _amount) public {\r\n        uint256 supply = totalSupply;\r\n        require(supply <= maxSupply);\r\n        require(buildings[_id - 1].owner == address(0x0));\r\n        require(_amount >= cost);\r\n\r\n        // Call the USDC transferFrom function:\r\n        require(IERC20(USDC).transferFrom(msg.sender, address(this), _amount));\r\n\r\n        // NOTE: tokenID always starts from 1, but our arrray starts from 0\r\n        buildings[_id - 1].owner = msg.sender;\r\n        totalSupply = totalSupply + 1;\r\n\r\n        _safeMint(msg.sender, _id);\r\n    }\r\n\r\n    function transferFrom(\r\n        address from,\r\n        address to,\r\n        uint256 tokenId\r\n    ) public override {\r\n        require(\r\n            _isApprovedOrOwner(_msgSender(), tokenId),\r\n            \"ERC721: transfer caller is not owner nor approved\"\r\n        );\r\n\r\n        // Update Building ownership\r\n        buildings[tokenId - 1].owner = to;\r\n\r\n        _transfer(from, to, tokenId);\r\n    }\r\n\r\n    function safeTransferFrom(\r\n        address from,\r\n        address to,\r\n        uint256 tokenId,\r\n        bytes memory _data\r\n    ) public override {\r\n        require(\r\n            _isApprovedOrOwner(_msgSender(), tokenId),\r\n            \"ERC721: transfer caller is not owner nor approved\"\r\n        );\r\n\r\n        // Update Building ownership\r\n        buildings[tokenId - 1].owner = to;\r\n\r\n        _safeTransfer(from, to, tokenId, _data);\r\n    }\r\n\r\n    // Public View Functions\r\n    function getBuildings() public view returns(Building[] memory) {\r\n        return buildings;\r\n    }\r\n\r\n    function getBuilding(uint256 _id) public view returns (Building memory) {\r\n        return buildings[_id - 1];\r\n    } \r\n}",
  "sourcePath": "/mnt/c/pr0/metaverse/src/contracts/Land.sol",
  "compiler": {
    "name": "solc",
    "version": "0.8.2+commit.661d1103.Emscripten.clang"
  },
  "schemaVersion": "3.4.7",
  "updatedAt": "2022-09-20T08:21:22.000Z",
  "networkType": "ethereum",
  "devdoc": {
    "kind": "dev",
    "methods": {
      "approve(address,uint256)": {
        "details": "See {IERC721-approve}."
      },
      "balanceOf(address)": {
        "details": "See {IERC721-balanceOf}."
      },
      "getApproved(uint256)": {
        "details": "See {IERC721-getApproved}."
      },
      "isApprovedForAll(address,address)": {
        "details": "See {IERC721-isApprovedForAll}."
      },
      "name()": {
        "details": "See {IERC721Metadata-name}."
      },
      "ownerOf(uint256)": {
        "details": "See {IERC721-ownerOf}."
      },
      "safeTransferFrom(address,address,uint256)": {
        "details": "See {IERC721-safeTransferFrom}."
      },
      "safeTransferFrom(address,address,uint256,bytes)": {
        "details": "See {IERC721-safeTransferFrom}."
      },
      "setApprovalForAll(address,bool)": {
        "details": "See {IERC721-setApprovalForAll}."
      },
      "supportsInterface(bytes4)": {
        "details": "See {IERC165-supportsInterface}."
      },
      "symbol()": {
        "details": "See {IERC721Metadata-symbol}."
      },
      "tokenURI(uint256)": {
        "details": "See {IERC721Metadata-tokenURI}."
      },
      "transferFrom(address,address,uint256)": {
        "details": "See {IERC721-transferFrom}."
      }
    },
    "version": 1
  },
  "userdoc": {
    "kind": "user",
    "methods": {},
    "version": 1
  }
}